:020000040000FA
:040000000BEF0EF004
:08000800D8CF81F0806FE0CF3A
:1000100083F0E950846FEA50856FE150E46FE2505D
:10002000E56F9DAA17EF00F09EBA99EF00F09DA032
:100030001DEF00F09EB046EF00F09DA823EF00F00A
:100040009EB8BBEF00F09DAC29EF00F09EBCC5EF61
:1000500000F09DA22FEF00F09EB296EF00F0F2B4F8
:1000600091EF00F0A0A238EF00F0A1B2D3EF00F0C2
:1000700083C0E0FF8451E96E8551EA6EE451E16E80
:10008000E551E26E805181C0D8FF10009E90A083A0
:10009000100EDF193DE1DF6BDE2B3A0EDE1934E185
:1000A000300EDE6FDD2B360EDD192EE1300EDD6FEA
:1000B000DC2B3A0EDC1928E1300EDC6FDB2B360E20
:1000C000DB1922E1300EDB6FDA2B340EDA637EEFC0
:1000D00000F0320ED9637EEF00F0300ED96FDA6F88
:1000E000D82B3A0ED81910E1300ED86FD72B3A0E14
:1000F000D9190AE1300ED76F84EF00F03A0EDA1901
:1001000003E1300EDA6FD92BA1A588EF00F0A187AB
:10011000DF2B38EF00F0F29081BE38EF00F038EFBF
:1001200000F0F294F29AC28238EF00F09E929D9213
:10013000CA94A0B738EF00F0ABB4C2EF00F0ABB296
:10014000BDEF00F08D51000FE96E010EEA6EAE506A
:10015000EF6E0A0EEF18D8B4B1EF00F08D2B38EF28
:1001600000F0A0870D0EEF6EE92AEF6EE92AEF6A24
:10017000E92AEF6AAB9838EF00F0AB980000AB8843
:1001800038EF00F0AE5038EF00F09E9C9B0E9FA120
:10019000AA0EE16EE26AC450E76EE12AC350E76E30
:1001A000A08938EF00F0A19299518314D8B4DFEF01
:1001B00000F0A1999F9F9E95A18B38EF00F09EB50E
:1001C00038EF00F09FAF38EF00F0E32F38EF00F08A
:1001D000010EE36F9E8538EF00F0F294F2A4EEEF8B
:1001E00000F0F294F29A1200A26F020EA36F0F0EAB
:1001F0008C16F00EA2158C268286000000008296D6
:10020000A23BA32FF7EF00F012008A86F4EC00F077
:100210008A9612008A9612008B6F81968B51A26F7C
:10022000F4EC00F0100E956FFF0FA36F32EC01F0AD
:10023000200EA26F05EC01F0952F16EF01F00AECED
:1002400001F08B511200A26FF4EC00F032EC01F0DF
:10025000200EA26F05EC01F08B2F26EF01F00AECC7
:1002600001F012000F0E8C169550F009956E8A84DD
:100270008A968B868350F00BA36F8B9600008B863B
:1002800083380F0BA3278B96A3BF39EF01F00F0E16
:10029000956E8A948A9612000AEC01F00F0E8C1665
:1002A0008A948B96D66AF29AEDEC00F02A0EF00B47
:1002B0008C128B8600008B96D66AEDEC00F02A0E2D
:1002C000F00B8C128B8600008B96D66AEDEC00F05A
:1002D0002A0EF00B8C128B8600008B96D66AEDEC02
:1002E00000F0280EF4EC00F032EC01F0010EF4EC1A
:1002F00000F032EC01F00C0EF4EC00F032EC01F006
:10030000060EF4EC00F032EC01F01200A96EA69E8D
:10031000A680A8501200A6B28BEF01F0A96EE7509C
:10032000A86EA69EA684F29E550EA76EAA0EA76E74
:10033000A682F28EA6941200000EE96EEA6ACB0E37
:10034000E16EE26AE95086EC01F0E76EE92AE12A03
:100350000A0EE918D8A4A2EF01F04CEC01F032EC3F
:1003600001F00AEC01F0800EF4EC00F032EC01F048
:10037000450E05EC01F00C0EAF6EAC6AAC84AC8A95
:100380009D8A900EAB6E000EA96FB06F080EB56F10
:1003900082881A0EC16EA60EC06EA185300ED76F70
:1003A000D86FD96FDA6FDB6FDC6FDD6FDE6F000E39
:1003B000A56F200EA76F800EAF6F90EC03F09F81AA
:1003C000000EAD6F800EAE6F020EE66F020EE76F8D
:1003D000000EE96F9E839E81D6EF0DF0966B9251D1
:1003E000190DF450976F0A0DF350925D986F090E36
:1003F000986500EF02F00A0E985F972BD8B0962B05
:1004000097511A0DF45005E0966F0A0E9603F350BB
:10041000975F935115E0010A05E09351020A08E045
:1004200020EF02F0060E9727040E982720EF02F027
:10043000010E9627020E9727080E982720EF02F04C
:100440001200A19732EC01F0800EF4EC00F032ECD7
:1004500001F0200EA0BD720E05EC01F032EC01F0AF
:10046000200E9FB9730E05EC01F032EC01F0D70EAF
:10047000D96EDA6A41EF02F03A0E05EC01F032EC87
:1004800001F0300ED918D8B449EF02F0DF504AEF2E
:1004900002F0200E05EC01F032EC01F0D92ADF5019
:1004A00005EC01F032EC01F0D92ADF0ED918E4E1B5
:1004B0009FADD6EF0DF09F9DD6EF0DF0A82F120047
:1004C000A751A86F9FA512009F959F871200876B69
:1004D000896BA099A551A66FAF51B06FB16B8250D7
:1004E000F80B8B6EC250C30BC26EA1B1D66B9F9737
:1004F000C2829D8C1200A0B55EEC02F0A0931200A7
:10050000817829EF05F08F6B8E6BF1EC02F091C0D2
:100510008EF0F1EC02F091C08FF0F4380F0BFCEC90
:1005200002F0AD6EABEC02F0F4500F0BFCEC02F0FD
:10053000AD6EABEC02F0F3380F0BFCEC02F0AD6EDD
:10054000ABEC02F0F3500F0BFCEC02F0AD6EABEC39
:1005500002F029EF05F0ACA2ABEF02F09EA8AEEFDF
:1005600002F01200000EE96E010EEA6EABEC02F032
:10057000E92A0D0EEF18D8B4C2EF02F0EF50AD6EBD
:10058000B6EF02F0ABEC02F0200EAD6EABEC02F079
:100590003A0EAD6EABEC02F02D0EAD6EABEC02F090
:1005A0000A0EAD6EE90629EF05F0300EEF5C956F8F
:1005B000F00BD8B41200410EEF5C956FF00BD8A48D
:1005C000E5EF02F00A0E95271200610EEF5C956FC1
:1005D000F00BD8A4EFEF02F00A0E95271200956BEE
:1005E0001200E92AD5EC02F09539916FE92AD5EC91
:1005F00002F0955191271200956F0A0E955DD8A0D3
:1006000005EF03F09551370F12009551300F12008E
:10061000F1EC02F09151AF6E29EF05F0F1EC02F030
:100620009151DA6EF1EC02F09151D96EDF380F0B77
:10063000FCEC02F0AD6EABEC02F0DF500F0BFCEC0B
:1006400002F0AD6EABEC02F00A0EAD6EABEC02F058
:1006500029EF05F0916B020EFA6E91513BEC03F01D
:10066000FA6A000AD8B429EF05F0ABEC02F0AD6EDF
:10067000912B2BEF03F0F9267A0C6C0C650C200CF7
:10068000700C6F0C6C0C650C630C650C6E0C690CBB
:10069000650C0D0C000CE92AEF50D8B473EF03F091
:1006A000300EEF5CD8B473EF03F0A56FA66F0808A7
:1006B000D8A02AEF03F0E92A2E0EEF18D8A429EFCC
:1006C00005F0F1EC02F09151A76FA86F010EC26E18
:1006D000A085AF51B06F8250F80B8B6E9F8B9F85BA
:1006E0009F8929EF05F09F99000EC26EA095A099F1
:1006F0008198A09D9F9B29EF05F0A09D819829EFEF
:1007000005F0A0A57DEF03F0E92AD5EC02F09551A4
:10071000AD6FF1EC02F09151AE6FA08D29EF05F0B5
:10072000AFBF020EAFBD040EAFBB080EAFB9100EC7
:10073000AFB7200EAFB5400EAFB3800EB26F120050
:10074000AA6BAB6BAC6B9B6B9C6B9F91F1EC02F05B
:100750009151AF6F0108D8B029EF05F09F8190EC5F
:1007600003F029EF05F0F1EC02F09151F4EC00F008
:10077000F1EC02F0915105EC01F029EF05F0948ABB
:100780001200829A949A1200CC6A9E92C1EC03F0F5
:100790000000BFEC03F09EA2CBEF03F01200C1EC0F
:1007A00003F0CC6A00009E92829A9EA2D5EF03F0DD
:1007B000BFEC03F01200AB98949AFF0ECB6E0C0EB8
:1007C000CA6E9E92BFEC03F0C1EC03F09EA2E6EF6E
:1007D00003F0948A00009E9282AA00EF04F09EA289
:1007E000ECEF03F0ABEC02F00A0EAD6EABEC02F0F6
:1007F000350EAD6EABEC02F00A0EAD6E29EF05F0D2
:1008000082BA06EF04F09EA200EF04F09FB320EF3F
:1008100004F0ABEC02F00A0EAD6EABEC02F04F0E42
:10082000AD6EABEC02F04B0EAD6EABEC02F00A0E0F
:10083000AD6EABEC02F029EF05F09F83DBEF03F028
:100840009F933C0ECB6E040ECA6E9E92F1EC02F0AA
:100850009151B46FCC6A080E8B6FB4A1CFEC03F04A
:10086000B4B1C4EC03F0828AD890B4338B2F2DEF4F
:1008700004F0E92AEF500D0AD8B442EF04F0E9067B
:1008800026EF04F0CA0EE96EB5518E6F080E8B6F1D
:10089000CC6AEF6A9E92C1EC03F00000BFEC03F05B
:1008A0000000000000000000000000000000825076
:1008B0008F6F8FABD8908FBBD880EF329EA25EEF48
:1008C00004F09E928B2F4BEF04F0E92A8E2F46EF17
:1008D00004F0B5518B6FCA0EE96EABEC02F0EF3845
:1008E0000F0BFCEC02F0AD6EABEC02F0EF500F0B17
:1008F000FCEC02F0AD6EE92A8B2F6DEF04F0ABEC4F
:1009000002F00A0EAD6E29EF05F0E92AD5EC02F0EF
:1009100095510B08D8A091EF04F09551B56F29EFD0
:1009200005F0040EB56F29EF05F0E92A690EEF18FE
:10093000D8B4DBEF03F0730EEF18D8B41DEF04F05A
:10094000620EEF18D8B485EF04F029EF05F0F1EC52
:1009500002F09151030E916129EF05F0915105E0EC
:10096000D56FA181D66B29EF05F0A19129EF05F094
:10097000F1EC02F09151946F0908D8A029EF05F02D
:10098000F1EC02F0CB0E9425E16EE26A9151E76E34
:10099000910EE16E000E94258BEC01F029EF05F02D
:1009A000F1EC02F0080E9161DAEF04F09151E96F79
:1009B00029EF05F0000EE96F29EF05F0000EE96E52
:1009C000010EEA6E2A0EEF18D8A42EEF05F0E92AE0
:1009D0004C0EEF18D8B480EF02F02B0EEF18D8B4FD
:1009E00083EF02F03E0EEF18D8B4B2EF02F02A0EF9
:1009F000EF18D8B408EF03F0230EEF18D8B40EEFB9
:100A000003F0500EEF18D8B44BEF03F0520EEF186E
:100A1000D8B481EF03F0530EEF18D8B4A0EF03F071
:100A2000440EEF18D8B495EF04F0650EEF18D8B463
:100A3000B3EF03F0700EEF18D8B4B8EF04F0690EFE
:100A4000EF18D8B4A7EF04F0410EEF18D8B4D0EFE8
:100A500004F0E92AA0978D6BAB88120032EC01F00C
:100A6000C00EF4EC00F032EC01F0000EE96E010E65
:100A7000EA6E0D0EEF18D8B458EF05F0EF50D8B469
:100A800058EF05F08D51D8A446EF05F0EF5005EC76
:100A900001F032EC01F0872B87A955EF05F0876B49
:100AA0000F0E8B6FC00E23EC01F0E92A39EF05F031
:100AB000AB8829EF05F00A0E985D02E3986F972B3B
:100AC0000A0E975D02E3976F962B32EC01F0B1515D
:100AD000300F05EC01F032EC01F0200EA1BD2D0E1F
:100AE00005EC01F032EC01F096510EE1200E05EC20
:100AF00001F032EC01F097510DE1200E05EC01F010
:100B000032EC01F090EF05F09651300F05EC01F05A
:100B100032EC01F09751300F05EC01F032EC01F0AE
:100B20009851300F05EC01F032EC01F02E0E05EC7F
:100B300001F09D5108E0400A11E09D51800A19E042
:100B40009D51C00A21E032EC01F0300E05EC01F0BD
:100B500032EC01F0200E05EC01F0120032EC01F055
:100B6000320E05EC01F032EC01F0350E05EC01F02F
:100B7000120032EC01F0350E05EC01F032EC01F020
:100B8000300E05EC01F0120032EC01F0370E05ECEE
:100B900001F032EC01F0350E05EC01F01200020E0E
:100BA000AA5FD8B4D9EF05F0AAAFD9EF05F0AA2B08
:100BB000A18D1200AF519D6BB2519C03F4509C6FFC
:100BC000F3509D6F9B5108E0B2519B03F4509B6F13
:100BD000F3509C27D8B09B2B9D51AC27D8A0F5EFA4
:100BE00005F0010EAB27D8B0AA2B9C51AB27D8B08B
:100BF000AA2B9B51AA271200C282A0991200A09989
:100C00009FA108EF06F0DAEC05F0B02FFCEF05F03D
:100C1000A1B383EF06F0E26ACB0EE16EB151E1269B
:100C2000E750AB27E7BE17EF06F0D8B0AA2B9FA975
:100C300033EF06F08298AB98ABEC02F0AA51300F7C
:100C4000AD6EABEC02F0AB390F0BFCEC02F0AD6E0D
:100C5000ABEC02F0AB510F0BFCEC02F0AD6EABEC69
:100C600002F02C0EAD6ECFEC05F0B60EE16EB15178
:100C7000E126E126AA51E76EE12AAB51E76E9FAB70
:100C800081EF06F00C0E8761876B040EB16152EFA5
:100C900006F0A1BF81EF06F0010EB16563EF06F02B
:100CA0005BEF06F0A1AF81EF06F0050EB16563EFD3
:100CB00006F05BEF06F032EC01F0900E8725F4ECC5
:100CC00000F06BEF06F032EC01F0C00E8725F4EC7B
:100CD00000F06BEF06F0E750926FE106E750936F7C
:100CE000A1BD926DA1BD936D9251400DF3509D6FCA
:100CF000F450926FEEEC01F05BEC05F0A19D080E54
:100D00008727C3EF06F0E26AD30EE16ED605E1262F
:100D1000E750AB27D8B0AA2BC60EE16ED605E12668
:100D2000E126AA51E76E9FABA3EF06F032EC01F08B
:100D3000D00E8925F4EC00F032EC01F0E750300FD2
:100D400005EC01F0892BE12AAB51E76E9FABC1EFB7
:100D500006F032EC01F0E7380F0BFCEC02F005EC8A
:100D600001F032EC01F0E7500F0BFCEC02F005EC67
:100D700001F032EC01F0200E05EC01F0892B892BFB
:100D8000892B01EF07F0A0ADF8EF06F0E951B16350
:100D9000F8EF06F0AD51AA5DD8B4D9EF06F0D8A0AF
:100DA000D5EF06F0A08FF8EF06F0A0AFA08BF8EF1C
:100DB00006F081B0E8EF06F0E751AE5DAB5DD8B468
:100DC000D5EF06F0D8A0D5EF06F0A08FF8EF06F02B
:100DD000E651AE25AB5DD8B4F1EF06F0D8A0D5EF63
:100DE00006F0A08FF8EF06F0D5EF06F0F8EF06F06A
:100DF000AA6BAB6BAC6BA62F6BEF07F0A1A10BEF4F
:100E000007F0D651D519D8B40BEF07F0080EC2265B
:100E1000D62B66EF07F0A0AD1BEF07F0A0BF18EFD1
:100E200007F0A0AB18EF07F081A0818019EF07F061
:100E30008190A09BA09FA1A156EF07F0ABEC02F020
:100E4000690EAD6EABEC02F0C651300FAD6EABEC7F
:100E500002F0C7390F0BFCEC02F0AD6EABEC02F008
:100E6000C7510F0BFCEC02F0AD6EABEC02F02C0E98
:100E7000AD6EABEC02F0690EAD6EABEC02F0C8519A
:100E8000300FAD6EABEC02F0C9390F0BFCEC02F089
:100E9000AD6EABEC02F0C9510F0BFCEC02F0AD6E85
:100EA000ABEC02F02C0EAD6EABEC02F0ABEC02F052
:100EB0000A0EAD6EAB88000000008288AA6BAB6B97
:100EC000AC6B9F85A099A193896B1200AF51B06F55
:100ED000A1837DEF07F0B12BAF51B06F8B2A7DEF6F
:100EE00007F0B12BAF51B06FC250040FC26E3C0E71
:100EF000C2140C0A02E1040EC2269D8CAA6BAB6BD5
:100F0000AC6BD66AF294F28AA0991200A092B36AEE
:100F1000B26AA192A0821200A1B91200A189996BB4
:100F2000998186EF07F09EB5D8EF07F0A1B91200BE
:100F3000A189996B9983B9EF07F086EF07F09EB509
:100F400057EF09F0A1B91200A189996B9985B9EF02
:100F500007F086EF07F0020EE163B1EF07F0B9EF9B
:100F600007F0050EE163B7EF07F0B9EF07F086EF82
:100F700007F0040EE36F9F8F86EF07F0A1B9120010
:100F8000A189996B998786EF07F032EC01F0010E89
:100F9000F4EC00F032EC01F09EB19F8B9EB3A18582
:100FA000E06BE16BD4EF07F0A19B996BF1EF0DF0D3
:100FB000E0BF4FEF08F0E0510AE132EC01F0010E22
:100FC000F4EC00F032EC01F0A17F4EEF09F01B0EC3
:100FD000F76EA60EF66EE22BE251F6260800010E21
:100FE000F56235EF08F0010EE26FE12B32EC01F013
:100FF000010EF4EC00F032EC01F0800EF4EC00F0A5
:1010000032EC01F02A0E05EC01F032EC01F0D89040
:10101000E037E0B31DEF08F0E0B525EF08F0E0B7EA
:101020002DEF08F0010EE16FE06F1B0EF76E000E62
:10103000F66EF8EC0AF04EEF09F01B0EF76E220E7A
:10104000F66EF8EC0AF04EEF09F01B0EF76E420E4A
:10105000F66EF8EC0AF04EEF09F01B0EF76E6E0E0E
:10106000F66EF8EC0AF04EEF09F0E12B32EC01F0ED
:10107000F550F4EC00F032EC01F02A0E05EC01F032
:1010800032EC01F0F6060800F550F4EC00F032EC1A
:1010900001F0200E05EC01F0F62A4EEF09F0010EEA
:1010A000E16368EF08F0A507FF0EA5635AEF08F0AB
:1010B000080EA56F32EC01F0800E0C0FF4EC00F07E
:1010C00032EC01F0A551300F05EC01F04EEF09F0C4
:1010D000020EE16378EF08F0A707A751926F936BB8
:1010E000986B976BEEEC01F090EC0CF04EEF09F082
:1010F000030EE16399EF08F0010EAF6384EF08F08F
:10110000800EAF6F8AEF08F0800EAF03F450AF6F20
:1011100090EC03F09F91010EAF639F81AF51926FEE
:10112000936B986B976BEEEC01F090EC0CF04EEF3C
:1011300009F0050EE163ADEF08F0AE07D8B0A9EFF6
:1011400008F0AD5104E0AD07D8A4A9EF08F0010EF6
:10115000AD6FA0EC0BF04EEF09F0090EE163BDEFAF
:1011600008F0E607E651926F936B986B976BEEEC85
:1011700001F090EC0CF04EEF09F00A0EE163CDEFB8
:1011800008F0E707E751926F936B986B976BEEEC63
:1011900001F090EC0CF04EEF09F0100EE16336EF29
:1011A00009F0D70EE863EAEF08F0300ED863E7EFF6
:1011B00008F0300ED763E2EF08F0390ED76FD86F22
:1011C00032EF09F0390ED86FD70732EF09F0D807A0
:1011D00032EF09F0D90EE86304EF09F0300EDA635C
:1011E00001EF09F0300ED963FCEF08F0320ED96F31
:1011F000330EDA6F32EF09F0390EDA6FD90732EFBA
:1012000009F0DA0732EF09F0DB0EE8631EEF09F0B0
:10121000300EDC631BEF09F0300EDB6316EF09F0D4
:10122000350EDB6F390EDC6F32EF09F0390EDC6FF3
:10123000DB0732EF09F0DC0732EF09F0300EDE6336
:1012400031EF09F0300EDD632CEF09F0350EDD6F64
:10125000390EDE6F32EF09F0390EDE6FDD0732EF47
:1012600009F0DE07BDEC0CF04EEF09F00B0EE16368
:101270004EEF09F0E951D8A442EF09F0070EE96FEB
:1012800043EF09F0E907E951926F936B986B976B05
:10129000EEEC01F090EC0CF04EEF09F09EB555EF3E
:1012A00009F0A19B996BF1EF0DF09E951200E0BF44
:1012B000F6EF09F0E0510AE132EC01F0010EF4EC36
:1012C00000F032EC01F0A17FEFEF0AF01B0EF76E99
:1012D000A60EF66EE207E251F6260800F5506CE124
:1012E000040EE26FE10732EC01F0010EF4EC00F0C5
:1012F00032EC01F0E0B1C4EF09F0D890E033E0B196
:1013000088EF09F0E0B39CEF09F0E0B5B0EF09F029
:101310001B0EF76E000EF66EF8EC0AF032EC01F0E0
:10132000D00EF4EC00F032EC01F02A0E05EC01F0E6
:1013300032EC01F0EFEF0AF01B0EF76E220EF66EA4
:10134000F8EC0AF032EC01F0D00EF4EC00F032ECE4
:1013500001F02A0E05EC01F032EC01F0EFEF0AF09B
:101360001B0EF76E420EF66EF8EC0AF032EC01F04E
:10137000D00EF4EC00F032EC01F02A0E05EC01F096
:1013800032EC01F04EEF09F0100EE16FE06BE087F8
:101390001B0EF76E6E0EF66EF8EC0AF032EC01F0F2
:1013A000D00EF4EC00F032EC01F02A0E05EC01F066
:1013B00032EC01F04EEF09F0E10732EC01F0F550AC
:1013C000F4EC00F032EC01F02A0E05EC01F032EC06
:1013D00001F0F62A0800F550F4EC00F032EC01F0D0
:1013E000200E05EC01F0F606EFEF0AF0010EE163C6
:1013F0000EEF0AF0A52B090EA56300EF0AF0A56B0E
:1014000032EC01F0800E0C0FF4EC00F032EC01F045
:10141000A551300F05EC01F0EFEF0AF0020EE16389
:101420001EEF0AF0A72BA751926F936B986B976BE7
:10143000EEEC01F090EC0CF0EFEF0AF0030EE1633C
:101440003DEF0AF0800EAF632BEF0AF0010EAF6F95
:101450009F9132EF0AF09F81020EAF03F350AF6FFE
:1014600090EC03F0AF51926F936B986B976BEEEC2F
:1014700001F090EC0CF0EFEF0AF0050EE1634DEF98
:101480000AF0AE2B06E3AD2B020EAD6349EF0AF076
:10149000AD6BA0EC0BF04EEF09F0090EE1635DEFD0
:1014A0000AF0E62BE651926F936B986B976BEEEC1C
:1014B00001F090EC0CF0EFEF0AF00A0EE1636DEF33
:1014C0000AF0E72BE751926F936B986B976BEEECFA
:1014D00001F090EC0CF0EFEF0AF0100EE163D8EFA2
:1014E0000AF0D70EE8638AEF0AF0390ED86387EF67
:1014F0000AF0390ED76382EF0AF0300ED86FD76F3B
:10150000D4EF0AF0300ED86FD72BD4EF0AF0D82BD7
:10151000D4EF0AF0D90EE863A7EF0AF0330EDA63CE
:101520009BEF0AF0320ED9639BEF0AF0300ED96FB1
:10153000DA6FD4EF0AF0390EDA63A4EF0AF0300E56
:10154000DA6FD92BD4EF0AF0DA2BD4EF0AF0DB0EE6
:10155000E863C0EF0AF0390EDC63BDEF0AF0350E28
:10156000DB63B8EF0AF0300EDB6FDC6FD4EF0AF00C
:10157000300EDC6FDB2BD4EF0AF0DC2BD4EF0AF05B
:10158000300EDE63D3EF0AF0300EDD63CEEF0AF0EB
:10159000350EDD6F390EDE6FD4EF0AF0300EDE6FE0
:1015A000DD2BD4EF0AF0DE2BBDEC0CF0EFEF0AF0F0
:1015B0000B0EE1635DEF0AF0070EE963E3EF0AF05B
:1015C000E96BE4EF0AF0E92BE951926F936B986BAA
:1015D000976BEEEC01F090EC0CF0EFEF0AF09EB59B
:1015E000F6EF0AF0A19B996BF1EF0DF09E951200BA
:1015F00032EC01F0800E010FF4EC00F032EC01F05F
:101600000900F55006E005EC01F032EC01F000EFC6
:101610000BF0C00E010FF4EC00F032EC01F0090009
:10162000F55006E005EC01F032EC01F00FEF0BF0A5
:10163000900E010FF4EC00F032EC01F00900F550CF
:1016400006E005EC01F032EC01F01EEF0BF0D00EDD
:10165000010FF4EC00F032EC01F00900F55006E067
:1016600005EC01F032EC01F02DEF0BF01200E0BFC1
:101670002BEF0CF0E05121E19F9BA19532EC01F0A2
:10168000010EF4EC00F032EC01F0010EE06FE26FBD
:10169000E16F32EC01F0800EF4EC00F032EC01F07E
:1016A0002A0E05EC01F032EC01F01B0EF76E000E75
:1016B000F66EF8EC0AF081EF0CF0010EE16370EFCA
:1016C0000BF032EC01F0800E0C0FF4EC00F032EC79
:1016D00001F0A551300F05EC01F0E08F81EF0CF027
:1016E000020EE16380EF0BF0A751926F936B986B42
:1016F000976BEEEC01F090EC0CF0E08F81EF0CF0CA
:10170000030EE16390EF0BF0AF51926F936B986B08
:10171000976BEEEC01F090EC0CF0E08F81EF0CF0A9
:10172000040EE16397EF0BF0A07D81EF0CF0050E46
:10173000E163BAEF0BF0A0EC0BF0E08F81EF0CF05F
:10174000AE51400DF3509D6FF450926FAD51936FB9
:10175000EEEC01F01B0EF76EA60EF66EE251F626C9
:1017600032EC01F00800F550090FF4EC00F05BECEE
:1017700005F01200060EE163C4EF0BF0020ED56F08
:10178000D66BA17181EF0CF0070EE163CBEF0BF08C
:10179000817081EF0CF0080EE163D2EF0BF08172E3
:1017A00081EF0CF0090EE163E2EF0BF0E651926F6E
:1017B000936B986B976BEEEC01F090EC0CF0E08F74
:1017C00081EF0CF00A0EE163F2EF0BF0E751926F3C
:1017D000936B986B976BEEEC01F090EC0CF0E08F54
:1017E00081EF0CF0100EE163FDEF0BF0D70EE86F08
:1017F000E08FBDEC0CF081EF0CF00C0EE16304EF18
:101800000CF09F7981EF0CF00D0EE1630BEF0CF003
:101810009E7381EF0CF00E0EE16312EF0CF09E71DF
:1018200081EF0CF00F0EE16319EF0CF0817881EF7E
:101830000CF00B0EE16329EF0CF00B50926F936BE1
:10184000986B976BEEEC01F090EC0CF0E08F81EF71
:101850000CF081EF0CF0010EE1633DEF0CF0B0EC09
:101860000CF0A5514EE0A66FA751A86FA0859F85EB
:101870009F81010EC26E81EF0CF0020EE16345EF15
:101880000CF0ECEC0CF081EF0CF0030EE1634DEF8B
:101890000CF0ECEC0CF081EF0CF0050EE16355EF71
:1018A0000CF0ECEC0CF081EF0CF0090EE1635DEF55
:1018B0000CF0ECEC0CF081EF0CF00A0EE16365EF3C
:1018C0000CF0ECEC0CF081EF0CF0100EE16379EF12
:1018D0000CF0DD0EE86371EF0CF0ECEC0CF081EF36
:1018E0000CF0020EE827BDEC0CF081EF0CF081EF5C
:1018F0000CF00B0EE16381EF0CF0ECEC0CF081EFDF
:101900000CF0A19B996BF1EF0DF01B0EF76EA60E7C
:10191000F66EE251F62632EC01F00800F5501200A6
:101920001B0EF76EA60EF66EE251F62632EC01F0B3
:101930000800F5500D0FF4EC00F032EC01F0965178
:10194000300F05EC01F032EC01F09751300F05EC4F
:1019500001F032EC01F09851300F05EC01F012006B
:10196000E09F32EC01F0800E0C0FF4EC00F032EC52
:1019700001F0200E05EC01F0120085EC0CF00C0FCC
:10198000F4EC00F032EC01F0D70EE863CBEF0CF092
:10199000440ED8EF0CF0D90EE863D0EF0CF0480EEF
:1019A000DB0EE863D7EF0CF04D0ED8EF0CF0530EC2
:1019B00005EC01F0DA6AE851D96E32EC01F0DF5043
:1019C00005EC01F032EC01F0D92ADF5005EC01F012
:1019D00032EC01F0D92A12001B0EF76EA60EF66E3D
:1019E000E251F626080032EC01F0F5500B0FF4EC52
:1019F00000F032EC01F0200E05EC01F032EC01F0C9
:101A0000200E05EC01F032EC01F0200E05EC01F0A7
:101A100032EC01F0200E05EC01F032EC01F0200E6A
:081A200005EC01F0E09F12004B
:101B0000706F6D6961722074006F6473746570002A
:101B1000737265646E696100726567756C61636A92
:101B200061007573746177207400706F6D69617204
:101B3000206900776C61637A3100776C61637A3277
:101B40000000686973746572657A61310068697351
:101B5000746572657A6132007A65676172007072CD
:101B60007A6573796C2073657269616C00007779AE
:101B700073776965746C2E207A6567617200777976
:101B800073776965746C2E2074656D7000706F6476
:101B900073776965746C656E696500637A756A2E22
:101BA0002072656700000080C090D001A1ABE5EF16
:101BB0000DF099B1C5EF07F099B3D8EF07F099B5DB
:101BC00057EF09F099B737EF0BF083A08CEC07F0D3
:101BD00083A293EC07F083A49FEC07F083A6BEECEE
:101BE00007F0A1B721EF02F0A0A503EF0EF0A1B717
:101BF00003EF0EF09FB503EF0EF09FB767EC02F016
:101C0000A0B9FFEC05F0A0B37BEC02F0A0B7DEECCE
:101C100004F0D6EF0DF0D86A806A816A826A836A1E
:101C2000846A896A8A6A8B6A8C6A8D6AD08E010E90
:101C3000CD6EF26AF28EF28CF06A800EF16EF29A3C
:101C40009698C69AAB9E000EB56E070EB46E000E47
:101C5000BD6EBA6ECC6A610EB16E9D6AA06A9D803F
:101C60003F0E926EE00E936EA00E946E0F0E956E68
:101C7000070E966EC70ED56E800ECB6E800EE96E87
:101C8000EA6AEF6AE92AD8A041EF0EF0EA2A020ECA
:101C9000EA18D8A441EF0EF081EF0EF0000EE96EC5
:101CA000010EEA6E1C0EFA6E915161EC0EF0EF6EB1
:101CB000000AD8B469EF0EF0912B912BE92A54EF6A
:101CC0000EF0F9262A0C700C300C320C300C360C4D
:101CD000000C010EA56F000EA66F010EAF6F040E73
:101CE000A76F040EA86F9F81A0859F859F8B010E13
:101CF000C26E0F0E8D6FFF0E866FF00E876F110E86
:081D00009E6FFA6A9CEF01F0EE
:020000040030CA
:08000000FF71F2FEFFFD7AFF23
:00000001FF
