:020000040000FA
:04000000B2EF0EF05D
:08000800D8CF81F0806FE0CF3A
:1000100083F0E950846FEA50856FE150ED6FE25054
:10002000EE6F9DAA17EF00F09EBA9CEF00F09DA026
:100030001DEF00F09EB049EF00F09DA823EF00F007
:100040009EB8BEEF00F09DAC29EF00F09EBCC8EF5B
:1000500000F09DA22FEF00F09EB299EF00F0F2B4F5
:1000600094EF00F0A0A238EF00F0A1B2D6EF00F0BC
:10007000A1B4F0EF00F083C0E0FF8451E96E855138
:10008000EA6EED51E16EEE51E26E805181C0D8FF13
:1000900010009E90A083100EE8193DE1E86BE72B5D
:1000A0003A0EE71934E1300EE76FE62B360EE6190B
:1000B0002EE1300EE66FE52B3A0EE51928E1300E01
:1000C000E56FE42B360EE41922E1300EE46FE32BEA
:1000D000340EE36381EF00F0320EE26381EF00F053
:1000E000300EE26FE36FE12B3A0EE11910E1300EB2
:1000F000E16FE02B3A0EE2190AE1300EE06F87EF74
:1001000000F03A0EE31903E1300EE36FE22BA1A5F4
:100110008BEF00F0A187E82B3BEF00F0F29081BE5F
:100120003BEF00F03BEF00F0F294F29AC2823BEF1B
:1001300000F09E929D92CA94A0B73BEF00F0ABB442
:10014000C5EF00F0ABB2C0EF00F08D51000FE96ECB
:10015000010EEA6EAE50EF6E0A0EEF18D8B4B4EF8F
:1001600000F08D2B3BEF00F0A0870D0EEF6EE92A1B
:10017000EF6EE92AEF6AE92AEF6AAB983BEF00F0ED
:10018000AB980000AB883BEF00F0AE503BEF00F0C7
:100190009E9C9B0E9FA1A80EE16EE26AC450E76E82
:1001A000E12AC350E76EA0893BEF00F0A19299517C
:1001B0008314D8B4E2EF00F0A1999F9F9E95A18B84
:1001C0003BEF00F09EB53BEF00F09FAF3BEF00F040
:1001D000EC2F3BEF00F0010EEC6F9E853BEF00F043
:1001E000A66A9D6AA06AF26AD56ACA6ACD6AB16ACD
:1001F000C26AAB6AFF0E926E936E946E966E10EEAC
:10020000ACF0B70EE118D8B40CEF01F0E150BAEC45
:1002100001F0E12A01EF01F00CEF01F0A092D90EFC
:10022000B16E040E8B6FA192A1A214EF01F0A19206
:100230008B2F14EF01F01200F294F2A41DEF01F0E5
:10024000F294F29A1200A36F020EA46F0F0E8C1696
:10025000F00EA3158C268286000000008296A33B38
:10026000A42F26EF01F012008A8623EC01F08A9673
:1002700012008A9612008B6F81968B51A36F23EC2C
:1002800001F0100E956FFF0FA46F61EC01F0200ECE
:10029000A36F34EC01F0952F45EF01F039EC01F03C
:1002A0008B511200A36F23EC01F061EC01F0200EE2
:1002B000A36F34EC01F08B2F55EF01F039EC01F016
:1002C00012000F0E8C169550F009956E8A848A964E
:1002D0008B868350F00BA46F8B9600008B8683383F
:1002E0000F0BA4278B96A4BF68EF01F00F0E956E3D
:1002F0008A948A96120039EC01F00F0E8C168A94BB
:100300008B96D66AF29A1CEC01F02A0EF00B8C1236
:100310008B8600008B96D66A1CEC01F02A0EF00B3F
:100320008C128B8600008B96D66A1CEC01F02A0E8C
:10033000F00B8C128B8600008B96D66A1CEC01F0B9
:10034000280E23EC01F061EC01F0010E23EC01F02A
:1003500061EC01F00C0E23EC01F061EC01F0060EF3
:1003600023EC01F061EC01F01200A96EA69EA680BC
:10037000A8501200A6B2BAEF01F0A96EE750A86E1D
:10038000A69EA684F29E550EA76EAA0EA76EA68202
:10039000F28EA6941200A66A000EE96EEA6AD40EE6
:1003A000E16EE26AE950B5EC01F0E76EE92AE12A74
:1003B0000A0EE918D8A4D2EF01F07BEC01F061EC51
:1003C00001F039EC01F0800E23EC01F061EC01F05A
:1003D000450E34EC01F00C0EAF6EAC6AAC84AC8A06
:1003E0009D8A900EAB6E000EA76FBB6F1A0EC16E8A
:1003F000A60EC06EA185300EE06FE16FE26FE36F75
:10040000E46FE56FE66FE76F000EB96FBA6FB76F15
:10041000B86F9E839E81A66AAC0EE96EEA6AC00E32
:1004200023EC01F061EC01F00EEC01F0E9380F0B68
:100430006EEC03F034EC01F061EC01F0E9500F0BCD
:100440006EEC03F034EC01F061EC01F02E0E34ECB4
:1004500001F061EC01F00EEC01F0E950B5EC01F0B7
:10046000EF6E926F92390F0B6EEC03F034EC01F0EB
:1004700061EC01F092510F0B6EEC03F034EC01F0E3
:1004800061EC01F02E0E34EC01F061EC01F0E92A90
:10049000B70EE918D8A40FEF02F000EEACF0040E8E
:1004A000F76ECE0EF66EFF0EEF6259EF02F05DEFC3
:1004B00002F0000EEF6260EF02F00900F550EF6EFF
:1004C000E92AB70EE96253EF02F06FEF02F0002065
:1004D0008000A000A0020202020000000000010E45
:1004E000AF6574EF02F0AF6B010EB16579EF02F00A
:1004F000B16B1C0ED26ED2AA7BEF02F0A194A08445
:10050000B6EC03F0010EAE639F817DEF0EF0966BAB
:100510009251190DF450976F0A0DF350925D986F38
:10052000090E986599EF02F00A0E985F972BD8B0E4
:10053000962B97511A0DF45005E0966F0A0E96030C
:10054000F350975F935115E0010A05E09351020AB9
:1005500008E0B9EF02F0060E9727040E9827B9EFCE
:1005600002F0010E9627020E9727080E9827B9EF82
:1005700002F01200A19761EC01F0800E23EC01F073
:1005800061EC01F0B751B81103E1200EC9EF02F0A0
:10059000720E34EC01F061EC01F0200E9FB9730E85
:1005A00034EC01F061EC01F0E00ED96EDA6ADEEFB6
:1005B00002F03A0E34EC01F061EC01F0300ED91883
:1005C000D8B4E6EF02F0DF50E7EF02F0200E34EC93
:1005D00001F061EC01F0D92ADF5034EC01F061EC5C
:1005E00001F0D92AE80ED918E4E19FAD7DEF0EF0B5
:1005F0009F9D7DEF0EF0A62F1200AD51A66F9FA517
:1006000012009F959F871200876B896BA099AC5150
:10061000AB6FAE51BB6FBC6B8250F80B8B6EC25090
:10062000C30BC26EA1B1DF6B9F97C2829D8C12007B
:10063000A0B5FBEC02F0A0931200ACA21DEF03F0FA
:100640009EA820EF03F01200000EE96E010EEA6E84
:100650001DEC03F0E92A0D0EEF18D8B434EF03F0C7
:10066000EF50AD6E28EF03F01DEC03F0200EAD6EE1
:100670001DEC03F03A0EAD6E1DEC03F02D0EAD6EC9
:100680001DEC03F00A0EAD6EE90622EF04F0300E09
:10069000EF5C956FF00BD8B41200410EEF5C956FD4
:1006A000F00BD8A457EF03F00A0E95271200610E45
:1006B000EF5C956FF00BD8A461EF03F00A0E95275D
:1006C0001200956B1200E92A47EC03F09539916FFF
:1006D000E92A47EC03F0955191271200956F0A0E15
:1006E000955DD8A077EF03F09551370F1200955123
:1006F000300F120022EF04F0E92AEF50D8B4A0EF37
:1007000003F0300EEF5CD8B4A0EF03F0AC6FAB6F2A
:10071000E92A2E0EEF18D8A422EF04F063EC03F0C0
:100720009151AD6FA66F010EC26EA085AE51BB6F29
:100730008250F80B8B6E9F8B9F859F8922EF04F070
:100740009F99000EC26EA095A099A297A2939F9B1D
:10075000B76BB86B8190819222EF04F0A293A297BD
:10076000B76BB86B22EF04F022EF04F0AEBF020EBD
:10077000AEBD040EAEBB080EAEB9100EAEB7200E65
:10078000AEB5400EAEB3800EBD6F1200A86BA96B64
:10079000AA6B9B6B9C6B9F9163EC03F09151AE6FC6
:1007A0000108D8B022EF04F09F81B6EC03F022EFED
:1007B00004F022EF04F063EC03F09151946F090808
:1007C000D8A022EF04F063EC03F0D40E9425E16E80
:1007D000E26A9151E76E910EE16E000E9425BAEC3B
:1007E00001F022EF04F022EF04F0000EE96E010E9A
:1007F000EA6E2A0EEF18D8A427EF04F0E92A3E0E7D
:10080000EF18D8B424EF03F0500EEF18D8B47CEFF3
:1008100003F0520EEF18D8B4B4EF03F0530EEF18F4
:10082000D8B4C6EF03F0700EEF18D8B4DBEF03F0C6
:10083000690EEF18D8B4D9EF03F0410EEF18D8B411
:10084000F3EF03F0E92AA0978D6BAB88120061ECFF
:1008500001F0C00E23EC01F061EC01F0000EE96E36
:10086000010EEA6E0D0EEF18D8B451EF04F0EF5000
:10087000D8B451EF04F08D51D8A43FEF04F0EF50FD
:1008800034EC01F061EC01F0872B87A94EEF04F006
:10089000876B0F0E8B6FC00E52EC01F0E92A32EF1E
:1008A00004F0AB8822EF04F061EC01F0BC51300F92
:1008B00034EC01F061EC01F0200EA1BD2D0E34EC02
:1008C00001F00A0E985D02E3986F972B0A0E975D70
:1008D00002E3976F962B61EC01F096510EE1200E2A
:1008E00034EC01F061EC01F097510DE1200E34EC95
:1008F00001F061EC01F089EF04F09651300F34EC17
:1009000001F061EC01F09751300F34EC01F061EC33
:1009100001F09851300F34EC01F061EC01F02E0E33
:1009200034EC01F09D5108E0400A11E09D51800A2D
:1009300019E09D51C00A21E061EC01F0300E34EC69
:1009400001F061EC01F0200E34EC01F0120061ECDA
:1009500001F0320E34EC01F061EC01F0350E34ECB4
:1009600001F0120061EC01F0350E34EC01F061ECA5
:1009700001F0300E34EC01F0120061EC01F0370EA2
:1009800034EC01F061EC01F0350E34EC01F01200B2
:10099000020EA85FD8B4D2EF04F0A8AFD2EF04F0F3
:1009A000A82BA18D1200AE519D6BBD519C03F4503C
:1009B0009C6FF3509D6F9B5108E0BD519B03F45019
:1009C0009B6FF3509C27D8B09B2B9D51AA27D8A092
:1009D000EEEF04F0010EA927D8B0A82B9C51A9274F
:1009E000D8B0A82B9B51A8271200C282A099120050
:1009F000A0999FA101EF05F0D3EC04F0BB2FF5EF18
:100A000004F0A1B37CEF05F0E26AD40EE16EBC51B4
:100A1000E126E750A927E7BE10EF05F0D8B0A82BD4
:100A20009FA92CEF05F08298AB981DEC03F0A8511C
:100A3000300FAD6E1DEC03F0A9390F0B6EEC03F017
:100A4000AD6E1DEC03F0A9510F0B6EEC03F0AD6E13
:100A50001DEC03F02C0EAD6EC8EC04F0BF0EE16E81
:100A6000BC51E126E126A851E76EE12AA951E76EC3
:100A70009FAB7AEF05F00C0E8761876B040EBC61AB
:100A80004BEF05F0A1BF7AEF05F0010EBC655CEFFE
:100A900005F054EF05F0A1AF7AEF05F0050EBC6547
:100AA0005CEF05F054EF05F061EC01F0900E872546
:100AB00023EC01F064EF05F061EC01F0C00E872536
:100AC00023EC01F064EF05F0E750926FE106E75088
:100AD000936FA1BD926DA1BD936D9251400DF350E6
:100AE0009D6FF450926F87EC02F054EC04F0A19DDE
:100AF000080E8727C3EF05F0E26ADC0EE16EDF0522
:100B0000E126E750A927D8B0A82BCF0EE16EDF056C
:100B1000E126E126A851E76E9FAB9BEF05F061EC63
:100B200001F0D00E892523EC01F061EC01F0200EDC
:100B300034EC01F0892BE12AA951E76E9FABC1EF9C
:100B400005F0E750926F936B986B976B87EC02F010
:100B500061EC01F09651300F34EC01F061EC01F0E2
:100B60009751300F34EC01F061EC01F09851300FE7
:100B700034EC01F061EC01F0200E34EC01F0040ED5
:100B80008927A0EF06F0B751D8B42DEF06F0B95180
:100B9000BC632DEF06F0B751010AD8B4D5EF05F0CC
:100BA000B751020AD8B401EF06F0AF51A85DD8B42E
:100BB000E4EF05F0D8A0E0EF05F0A2852DEF06F0F8
:100BC000A2A5A2812DEF06F081B0F3EF05F0B4519C
:100BD000B05DA95DD8B4E0EF05F0D8A0E0EF05F076
:100BE000A2852DEF06F0B351B025A95DD8B4FCEF76
:100BF00005F0D8A0E0EF05F0A2852DEF06F0E0EFBC
:100C000005F0AF51A85DD8B410EF06F0D8B00CEFE6
:100C100006F0A2852DEF06F0A2A5A2812DEF06F029
:100C200081B01FEF06F0B351B025A95DD8B40CEF29
:100C300006F0D8B00CEF06F0A2852DEF06F0B45107
:100C4000B05DA95DD8B428EF06F0D8B00CEF06F07F
:100C5000A2852DEF06F00CEF06F0B851D8B497EF4F
:100C600006F0BA51BC6397EF06F0B851010AD8B448
:100C70003FEF06F0B851020AD8B46BEF06F0B1515D
:100C8000A85DD8B44EEF06F0D8A04AEF06F0A28BCC
:100C900097EF06F0A2ABA28997EF06F081B25DEF65
:100CA00006F0B651B25DA95DD8B44AEF06F0D8A0FF
:100CB0004AEF06F0A28B97EF06F0B551B225A95D79
:100CC000D8B466EF06F0D8A04AEF06F0A28B97EFF3
:100CD00006F04AEF06F0B151A85DD8B47AEF06F0FD
:100CE000D8B076EF06F0A28B97EF06F0A2ABA28900
:100CF00097EF06F081B289EF06F0B551B225A95DF4
:100D0000D8B476EF06F0D8B076EF06F0A28B97EF66
:100D100006F0B651B25DA95DD8B492EF06F0D8B036
:100D200076EF06F0A28597EF06F076EF06F0A86B57
:100D3000A96BAA6BAB2F18EF07F0A1A1AAEF06F0E1
:100D4000DF51DE19D8B4AAEF06F0080EC226DF2B59
:100D500013EF07F0B7510DE0A2B5B6EF06F0A2A170
:100D6000B6EF06F081A08180B7EF06F08190A291E6
:100D7000A295B8510DE0A2BBC5EF06F0A2A9C5EF40
:100D800006F081A28182C6EF06F08192A299A29B11
:100D9000A1A103EF07F01DEC03F0690EAD6E1DEC91
:100DA00003F0CF51300FAD6E1DEC03F0D0390F0BB7
:100DB0006EEC03F0AD6E1DEC03F0D0510F0B6EEC3A
:100DC00003F0AD6E1DEC03F02C0EAD6E1DEC03F0C8
:100DD000690EAD6E1DEC03F0D151300FAD6E1DEC00
:100DE00003F0D2390F0B6EEC03F0AD6E1DEC03F087
:100DF000D2510F0B6EEC03F0AD6E1DEC03F02C0E18
:100E0000AD6E1DEC03F01DEC03F00A0EAD6EAB8869
:100E1000000000008288A86BA96BAA6B9F85A0992F
:100E2000A193896B1200AE51BB6FA1832AEF07F02B
:100E3000BC2BAE51BB6F8B2A2AEF07F0BC2BAE51F7
:100E4000BB6FC250040FC26E3C0EC2140C0A02E10A
:100E5000040EC2269D8CA86BA96BAA6BD66AF2946D
:100E6000F28AA0991200A092B36AB26AA192A082FB
:100E70001200A1B91200A189996B998133EF07F093
:100E80009EB58BEF07F0A1B91200A189996B9983E8
:100E90006CEF07F033EF07F09EB581EF09F0A1B9D1
:100EA0001200A189996B99856CEF07F033EF07F079
:100EB000020EEA635EEF07F06CEF07F0050EEA63DF
:100EC00064EF07F06CEF07F0060EEA636AEF07F0D5
:100ED0006CEF07F033EF07F0040EEC6F9F8F33EFEA
:100EE00007F0A1B91200A189996B998733EF07F038
:100EF00061EC01F0010E23EC01F061EC01F09EB118
:100F00009F8B9EB3A185E96BEA6B87EF07F0A19BEE
:100F1000996B98EF0EF0E9BF0DEF08F0E9510AE187
:100F200061EC01F0010E23EC01F061EC01F0A17F16
:100F300078EF09F01E0EF76ECC0EF66EEB2BEB5130
:100F4000F6260800010EF562F3EF07F0010EEB6FD5
:100F5000EA2B61EC01F0010E23EC01F061EC01F0F1
:100F6000800E23EC01F061EC01F02A0E34EC01F06C
:100F700061EC01F0D890E937E9B3D3EF07F0E9B5B8
:100F8000DBEF07F0E9B7E3EF07F0E9B9EBEF07F0C4
:100F9000010EEA6FE96F1E0EF76E080EF66ECCECCE
:100FA0000BF078EF09F01E0EF76E2A0EF66ECCEC01
:100FB0000BF078EF09F01E0EF76E4A0EF66ECCECD1
:100FC0000BF078EF09F01E0EF76E700EF66ECCEC9B
:100FD0000BF078EF09F01E0EF76E980EF66ECCEC63
:100FE0000BF078EF09F0EA2B61EC01F0F55023ECFF
:100FF00001F061EC01F02A0E34EC01F061EC01F03B
:10100000F6060800F55023EC01F061EC01F0200E2B
:1010100034EC01F0F62A78EF09F0010EEA6326EFCE
:1010200008F0AC07FF0EAC6318EF08F0080EAC6FC9
:1010300061EC01F0800E0A0F23EC01F061EC01F08D
:10104000AC51300F34EC01F078EF09F0020EEA6396
:1010500036EF08F0AD07AD51926F936B986B976BBD
:1010600087EC02F0EDEC0DF078EF09F0030EEA6387
:1010700057EF08F0010EAE6342EF08F0800EAE6F3E
:1010800048EF08F0800EAE03F450AE6FB6EC03F0FC
:101090009F91010EAE639F81AE51926F936B986BDF
:1010A000976B87EC02F0EDEC0DF078EF09F0050E90
:1010B000EA636BEF08F0B007D8B067EF08F0AF5104
:1010C00004E0AF07D8B067EF08F0010EAF6F77EC20
:1010D0000CF078EF09F0060EEA637FEF08F0B20734
:1010E000D8B07BEF08F0B15104E0B107D8B07BEF86
:1010F00008F0010EB16F9AEC0CF078EF09F0090ED0
:10110000EA638FEF08F0B307B351926F936B986B5C
:10111000976B87EC02F0EDEC0DF078EF09F00A0E1A
:10112000EA639FEF08F0B407B451926F936B986B2A
:10113000976B87EC02F0EDEC0DF078EF09F00B0EF9
:10114000EA63AFEF08F0B507B551926F936B986BF8
:10115000976B87EC02F0EDEC0DF078EF09F00C0ED8
:10116000EA63BFEF08F0B607B651926F936B986BC6
:10117000976B87EC02F0EDEC0DF078EF09F00D0EB7
:10118000EA63CFEF08F0B707D8B0C9EF08F0020E56
:10119000B76F20EEB7F0E3EC0AF078EF09F00E0E2F
:1011A000EA63DFEF08F0B807D8B0D9EF08F0020E15
:1011B000B86F20EEB8F0E3EC0AF078EF09F00F0E0C
:1011C000EA63F7EF08F0B951D8A4EBEF08F0070E87
:1011D000B96FECEF08F0B907B951926F936B986B48
:1011E000976B87EC02F0EDEC0DF078EF09F0100E44
:1011F000EA630FEF09F0BA51D8A403EF09F0070E24
:10120000BA6F04EF09F0BA07BA51926F936B986BFB
:10121000976B87EC02F0EDEC0DF078EF09F0140E0F
:10122000EA6378EF09F0E00EEF632CEF09F0300E7F
:10123000E16329EF09F0300EE06324EF09F0390E85
:10124000E06FE16F74EF09F0390EE16FE00774EFC2
:1012500009F0E10774EF09F0E20EEF6346EF09F0E1
:10126000300EE36343EF09F0300EE2633EEF09F026
:10127000320EE26F330EE36F74EF09F0390EE36F55
:10128000E20774EF09F0E30774EF09F0E40EEF638F
:1012900060EF09F0300EE5635DEF09F0300EE463B6
:1012A00058EF09F0350EE46F390EE56F74EF09F071
:1012B000390EE56FE40774EF09F0E50774EF09F004
:1012C000300EE76373EF09F0300EE6636EEF09F05E
:1012D000350EE66F390EE76F74EF09F0390EE76FE0
:1012E000E60774EF09F0E7071AEC0EF078EF09F063
:1012F0009EB57FEF09F0A19B996B98EF0EF09E953C
:101300001200E9BF3CEF0AF0E9510AE161EC01F09B
:10131000010E23EC01F061EC01F0A17FC3EF0BF0B3
:101320001E0EF76ECC0EF66EEB07EB51F62608009C
:10133000F550D8A422EF0AF0040EEB6FEA0761EC37
:1013400001F0010E23EC01F061EC01F0E9B10AEFCC
:101350000AF0D890E933E9B1BAEF09F0E9B3CEEF7A
:1013600009F0E9B5E2EF09F0E9B7F6EF09F0E9B9FC
:101370000AEF0AF01E0EF76E080EF66ECCEC0BF0BC
:1013800061EC01F0D00E23EC01F061EC01F02A0ECB
:1013900034EC01F061EC01F0C3EF0BF01E0EF76EC0
:1013A0002A0EF66ECCEC0BF061EC01F0D00E23ECC3
:1013B00001F061EC01F02A0E34EC01F061EC01F077
:1013C000C3EF0BF01E0EF76E4A0EF66ECCEC0BF070
:1013D00061EC01F0D00E23EC01F061EC01F02A0E7B
:1013E00034EC01F061EC01F078EF09F01E0EF76EBD
:1013F000700EF66ECCEC0BF061EC01F0D00E23EC2D
:1014000001F061EC01F02A0E34EC01F061EC01F026
:1014100078EF09F0140EEA6FE96BE9891E0EF76E9A
:10142000980EF66ECCEC0BF061EC01F0D00E23ECD4
:1014300001F061EC01F02A0E34EC01F061EC01F0F6
:1014400078EF09F0EA0761EC01F0F55023EC01F0C8
:1014500061EC01F02A0E34EC01F061EC01F0F62AA7
:101460000800F55023EC01F061EC01F0200E34ECA3
:1014700001F0F606C3EF0BF0010EEA6354EF0AF039
:10148000AC2B090EAC6346EF0AF0AC6B61EC01F0DB
:10149000800E0A0F23EC01F061EC01F0AC51300F2B
:1014A00034EC01F0C3EF0BF0020EEA6364EF0AF0D4
:1014B000AD2BAD51926F936B986B976B87EC02F0ED
:1014C000EDEC0DF0C3EF0BF0030EEA6383EF0AF0CF
:1014D000800EAE6371EF0AF0010EAE6F9F9178EF50
:1014E0000AF09F81020EAE03F350AE6FB6EC03F02C
:1014F000AE51926F936B986B976B87EC02F0EDECAB
:101500000DF0C3EF0BF0050EEA6393EF0AF0B02B7A
:1015100006E3AF2B020EAF638FEF0AF0AF6B77ECF1
:101520000CF078EF09F0060EEA63A3EF0AF0B22B95
:1015300006E3B12B020EB1639FEF0AF0B16B9AEC98
:101540000CF078EF09F0090EEA63B3EF0AF0B32B61
:10155000B351926F936B986B976B87EC02F0EDEC45
:101560000DF0C3EF0BF00A0EEA63C3EF0AF0B42BE1
:10157000B451926F936B986B976B87EC02F0EDEC24
:101580000DF0C3EF0BF00B0EEA63D3EF0AF0B52BAF
:10159000B551926F936B986B976B87EC02F0EDEC03
:1015A0000DF0C3EF0BF00C0EEA6309EF0BF0B62B56
:1015B000B651926F936B986B976B87EC02F0EDECE2
:1015C0000DF0C3EF0BF0010EDF62E9EF0AF0380E09
:1015D000966F020EDF62EFEF0AF0330E966F000E89
:1015E000DF6201EF0BF0000E966FB70ED962FCEFD1
:1015F0000AF0819001EF0BF0B80ED96201EF0BF009
:101600008192936BF00E986FF00E976FEDEC0DF0EA
:1016100012000D0EEA6319EF0BF0B72B020EB7653F
:1016200013EF0BF0B76B20EEB7F0E3EC0AF0C3EF6B
:101630000BF00E0EEA6329EF0BF0B82B020EB86523
:1016400023EF0BF0B86B20EEB8F0E3EC0AF0C3EF39
:101650000BF00F0EEA6341EF0BF0060EB95DD8A058
:1016600035EF0BF0B96B36EF0BF0B92BB951926F28
:10167000936B986B976B87EC02F0EDEC0DF0C3EF7A
:101680000BF0100EEA6358EF0BF0060EBA654CEF44
:101690000BF0BA6B4DEF0BF0BA2BBA51926F936B04
:1016A000986B976B87EC02F0EDEC0DF0C3EF0BF04D
:1016B000140EEA63C3EF0BF0E00EEF6375EF0BF06F
:1016C000390EE16372EF0BF0390EE0636DEF0BF052
:1016D000300EE16FE06FBFEF0BF0300EE16FE02BEB
:1016E000BFEF0BF0E12BBFEF0BF0E20EEF6392EFD9
:1016F0000BF0330EE36386EF0BF0320EE26386EFFE
:101700000BF0300EE26FE36FBFEF0BF0390EE363C7
:101710008FEF0BF0300EE36FE22BBFEF0BF0E32BFC
:10172000BFEF0BF0E40EEF63ABEF0BF0390EE563A8
:10173000A8EF0BF0350EE463A3EF0BF0300EE46F6F
:10174000E56FBFEF0BF0300EE56FE42BBFEF0BF052
:10175000E52BBFEF0BF0300EE763BEEF0BF0300E62
:10176000E663B9EF0BF0350EE66F390EE76FBFEFAA
:101770000BF0300EE76FE62BBFEF0BF0E72B1AEC08
:101780000EF0C3EF0BF09EB5CAEF0BF0A19B996B67
:1017900098EF0EF09E95120061EC01F0800E010FA3
:1017A00023EC01F061EC01F00900F55006E034ECA7
:1017B00001F061EC01F0D4EF0BF0C00E010F23EC4F
:1017C00001F061EC01F00900F55006E034EC01F0A5
:1017D00061EC01F0E3EF0BF0900E010F23EC01F050
:1017E00061EC01F00900F55006E034EC01F061EC29
:1017F00001F0F2EF0BF0D00E010F23EC01F061ECE1
:1018000001F00900F55006E034EC01F061EC01F064
:1018100001EF0CF01200E9BF5AEF0DF0E95121E1A0
:101820009F9BA19561EC01F0010E23EC01F061ECAE
:1018300001F0010EE96FEB6FEA6F61EC01F0800ED1
:1018400023EC01F061EC01F02A0E34EC01F061ECC4
:1018500001F01E0EF76E080EF66ECCEC0BF0DEEF0C
:101860000DF0010EEA6344EF0CF061EC01F0800E24
:101870000A0F23EC01F061EC01F0AC51300F34ECB5
:1018800001F0E98FDEEF0DF0020EEA6354EF0CF089
:10189000AD51926F936B986B976B87EC02F0EDEC08
:1018A0000DF0E98FDEEF0DF0030EEA6364EF0CF04C
:1018B000AE51926F936B986B976B87EC02F0EDECE7
:1018C0000DF0E98FDEEF0DF0040EEA636EEF0CF021
:1018D000020EDE6FDF6BA171DEEF0DF0050EEA6325
:1018E00091EF0CF077EC0CF0E98FDEEF0DF0B051DA
:1018F000400DF3509D6FF450926FAF51936F87EC92
:1019000002F01E0EF76ECC0EF66EEB51F62661EC71
:1019100001F00800F5500A0F23EC01F061EC04F02F
:101920001200060EEA63B4EF0CF09AEC0CF0E98FAB
:10193000DEEF0DF0B251400DF3509D6FF450926FF9
:10194000B151936F87EC02F01E0EF76ECC0EF66E5F
:10195000EB51F62661EC01F00800F5500A0F23EC7C
:1019600001F061EC04F01200070EEA63BBEF0CF02B
:101970008170DEEF0DF0080EEA63C2EF0CF08172A9
:10198000DEEF0DF0090EEA63D2EF0CF0B351926F67
:10199000936B986B976B87EC02F0EDEC0DF0E98F91
:1019A000DEEF0DF00A0EEA63E2EF0CF0B451926F35
:1019B000936B986B976B87EC02F0EDEC0DF0E98F71
:1019C000DEEF0DF00B0EEA63F2EF0CF0B551926F03
:1019D000936B986B976B87EC02F0EDEC0DF0E98F51
:1019E000DEEF0DF00C0EEA6302EF0DF0B651926FD0
:1019F000936B986B976B87EC02F0EDEC0DF0E98F31
:101A0000DEEF0DF00D0EEA630DEF0DF020EEB7F0F6
:101A1000E3EC0AF0E98FDEEF0DF00E0EEA6318EF4B
:101A20000DF020EEB8F0E3EC0AF0E98FDEEF0DF0F8
:101A30000F0EEA6328EF0DF0B951926F936B986B1C
:101A4000976B87EC02F0EDEC0DF0E98FDEEF0DF017
:101A5000100EEA6338EF0DF0BA51926F936B986BEA
:101A6000976B87EC02F0EDEC0DF0E98FDEEF0DF0F7
:101A7000110EEA633FEF0DF09E73DEEF0DF0120ED4
:101A8000EA6346EF0DF09E71DEEF0DF0130EEA6390
:101A90004DEF0DF08178DEEF0DF0140EEA6358EF94
:101AA0000DF0E00EEF6FE98F1AEC0EF0DEEF0DF0A7
:101AB000DEEF0DF0010EEA636CEF0DF00DEC0EF0B1
:101AC000AC517CE0AB6FAD51A66FA0859F859F8127
:101AD000010EC26EDEEF0DF0020EEA6374EF0DF040
:101AE0004BEC0EF0DEEF0DF0030EEA637CEF0DF031
:101AF0004BEC0EF0DEEF0DF0050EEA6384EF0DF017
:101B00004BEC0EF0DEEF0DF0060EEA638CEF0DF0FD
:101B10004BEC0EF0DEEF0DF0090EEA6394EF0DF0E2
:101B20004BEC0EF0DEEF0DF00A0EEA639CEF0DF0C9
:101B30004BEC0EF0DEEF0DF00B0EEA63A4EF0DF0B0
:101B40004BEC0EF0DEEF0DF00C0EEA63ACEF0DF097
:101B50004BEC0EF0DEEF0DF00D0EEA63B4EF0DF07E
:101B60004BEC0EF0DEEF0DF00E0EEA63BCEF0DF065
:101B70004BEC0EF0DEEF0DF00F0EEA63C4EF0DF04C
:101B80004BEC0EF0DEEF0DF0100EEA63CCEF0DF033
:101B90004BEC0EF0DEEF0DF0140EEA63DEEF0DF00D
:101BA000E60EEF63D8EF0DF04BEC0EF0DEEF0DF02C
:101BB000020EEF271AEC0EF0DEEF0DF0A19B996BF1
:101BC00098EF0EF01E0EF76ECC0EF66EEB51F62669
:101BD00061EC01F00800F55012001E0EF76ECC0EFD
:101BE000F66EEB51F62661EC01F00800F5500A0F95
:101BF00023EC01F061EC01F09651300F34EC01F070
:101C000061EC01F09751300F34EC01F061EC01F020
:101C10009851300F34EC01F01200E99F61EC01F0B3
:101C2000800E0A0F23EC01F061EC01F0200E34EC81
:101C300001F01200E2EC0DF00C0F23EC01F061EC6E
:101C400001F0E00EEF6328EF0EF0440E37EF0EF0D8
:101C5000E20EEF632FEF0EF0480E37EF0EF0E40EBA
:101C6000EF6336EF0EF04D0E37EF0EF0530E34ECFF
:101C700001F0DA6AEF51D96E61EC01F0DF5034EC1B
:101C800001F061EC01F0D92ADF5034EC01F061EC95
:101C900001F0D92A12001E0EF76ECC0EF66EEB5133
:101CA000F626080061EC01F0F5500A0F23EC01F074
:101CB00061EC01F0200E34EC01F061EC01F0200E3B
:101CC00034EC01F061EC01F0200E34EC01F061EC39
:101CD00001F0200E34EC01F061EC01F0200E34EC48
:101CE00001F061EC01F0200E34EC01F061EC01F048
:101CF000200E34EC01F0E99F1200A1AB8CEF0EF046
:101D000099B178EF07F099B38BEF07F099B581EFB0
:101D100009F099B70BEF0CF083A039EC07F083A220
:101D200040EC07F083A44CEC07F083A671EC07F0BD
:101D3000A1B7BAEF02F0A0A5AAEF0EF0A1B7AAEFE3
:101D40000EF09FB5AAEF0EF09FB704EC03F0A0B918
:101D5000F8EC04F0A0B318EC03F0A0B7F5EC03F036
:101D60007DEF0EF0F26AA06AA192D90EB16E020E5A
:101D70008B6FA1A2B9EF0EF0A1928B2FB9EF0EF0ED
:101D8000D86A806A816A826A836A846A896A8A6A8E
:101D90008B6A8C6A8D6AD08E010ECD6EF26AF28EDD
:101DA000F28CF06A800EF16EF29A9698C69AAB9E0B
:101DB000000EB56E070EB46E000EBD6EBA6ECC6A24
:101DC000510EB16E9D6AA06A9D803F0E926EE00E2C
:101DD000936EA00E946E0F0E956E070E966EC70E44
:101DE000D56E800ECB6E800EE96EEA6AEF6AE92A44
:101DF000D8A0F6EF0EF0EA2A020EEA18D8A4F6EF01
:101E00000EF0FA6ACBEF01F0706F6D6961722074A9
:101E1000006F647374657000737265646E6961004D
:101E2000706F6D696172206900007573746177204D
:101E3000743100757374617720743200776C61635C
:101E40007A3100776C61637A32006869732072318D
:101E5000203100686973207231203219006869737B
:101E60002072322031006869732072322032000003
:101E7000726567756C61636A613100726567756C64
:101E800061636A613200637A756A2072203100638F
:101E90007A756A2072203200777973776965746C7D
:101EA0002E207A6567617200777973776965746C43
:101EB0002E2074656D7000706F6473776965746C43
:101EC000656E6965007A6567617200000080C09088
:021ED000D0013F
:020000040030CA
:03000100410A1E93
:020005008081F8
:060008000FC00FE00F40E5
:00000001FF
