:020000040000FA
:040000001AEF0EF0F5
:08000800D8CF81F0806FE0CF3A
:1000100083F0E950846FEA50856FE150E76FE2505A
:10002000E86F9DAA17EF00F09EBA99EF00F09DA02F
:100030001DEF00F09EB046EF00F09DA823EF00F00A
:100040009EB8BBEF00F09DAC29EF00F09EBCC5EF61
:1000500000F09DA22FEF00F09EB296EF00F0F2B4F8
:1000600091EF00F0A0A238EF00F0A1B2D3EF00F0C2
:1000700083C0E0FF8451E96E8551EA6EE751E16E7D
:10008000E851E26E805181C0D8FF10009E90A0839D
:10009000100EE2193DE1E26BE12B3A0EE11934E179
:1000A000300EE16FE02B360EE0192EE1300EE06FDE
:1000B000DF2B3A0EDF1928E1300EDF6FDE2B360E14
:1000C000DE1922E1300EDE6FDD2B340EDD637EEFB4
:1000D00000F0320EDC637EEF00F0300EDC6FDD6F7F
:1000E000DB2B3A0EDB1910E1300EDB6FDA2B3A0E08
:1000F000DC190AE1300EDA6F84EF00F03A0EDD19F8
:1001000003E1300EDD6FDC2BA1A588EF00F0A187A5
:10011000E22B38EF00F0F29081BE38EF00F038EFBC
:1001200000F0F294F29AC28238EF00F09E929D9213
:10013000CA94A0B738EF00F0ABB4C2EF00F0ABB296
:10014000BDEF00F08D51000FE96E010EEA6EAE506A
:10015000EF6E0A0EEF18D8B4B1EF00F08D2B38EF28
:1001600000F0A0870D0EEF6EE92AEF6EE92AEF6A24
:10017000E92AEF6AAB9838EF00F0AB980000AB8843
:1001800038EF00F0AE5038EF00F09E9C9B0E9FA120
:10019000AB0EE16EE26AC450E76EE12AC350E76E2F
:1001A000A08938EF00F0A19299518314D8B4DFEF01
:1001B00000F0A1999F9F9E95A18B38EF00F09EB50E
:1001C00038EF00F09FAF38EF00F0E62F38EF00F087
:1001D000010EE66F9E8538EF00F0F294F2A4EEEF88
:1001E00000F0F294F29A1200A36F020EA46F0F0EA9
:1001F0008C16F00EA3158C268286000000008296D5
:10020000A33BA42FF7EF00F012008A86F4EC00F075
:100210008A9612008A9612008B6F81968B51A36F7B
:10022000F4EC00F0100E956FFF0FA46F32EC01F0AC
:10023000200EA36F05EC01F0952F16EF01F00AECEC
:1002400001F08B511200A36FF4EC00F032EC01F0DE
:10025000200EA36F05EC01F08B2F26EF01F00AECC6
:1002600001F012000F0E8C169550F009956E8A84DD
:100270008A968B868350F00BA46F8B9600008B863A
:1002800083380F0BA4278B96A4BF39EF01F00F0E14
:10029000956E8A948A9612000AEC01F00F0E8C1665
:1002A0008A948B96D66AF29AEDEC00F02A0EF00B47
:1002B0008C128B8600008B96D66AEDEC00F02A0E2D
:1002C000F00B8C128B8600008B96D66AEDEC00F05A
:1002D0002A0EF00B8C128B8600008B96D66AEDEC02
:1002E00000F0280EF4EC00F032EC01F0010EF4EC1A
:1002F00000F032EC01F00C0EF4EC00F032EC01F006
:10030000060EF4EC00F032EC01F01200A96EA69E8D
:10031000A680A8501200A6B28BEF01F0A96EE7509C
:10032000A86EA69EA684F29E550EA76EAA0EA76E74
:10033000A682F28EA6941200000EE96EEA6ACE0E34
:10034000E16EE26AE95086EC01F0E76EE92AE12A03
:100350000A0EE918D8A4A2EF01F04CEC01F032EC3F
:1003600001F00AEC01F0800EF4EC00F032EC01F048
:10037000450E05EC01F00C0EAF6EAC6AAC84AC8A95
:100380009D8A900EAB6E000EAA6FB36F080EB86F09
:1003900082881A0EC16EA60EC06EA185300EDA6F6D
:1003A000DB6FDC6FDD6FDE6FDF6FE06FE16F000E24
:1003B000A66F200EA86F800EB26F70EC03F09F81C5
:1003C000000EAE6F800EAF6F000EB06F800EB16F7B
:1003D000020EE96F020EEA6F010EEB6F010EEC6F79
:1003E000000EEE6F010EEF6F9E839E81E5EF0DF024
:1003F000966B9251190DF450976F0A0DF350925D60
:10040000986F090E98650AEF02F00A0E985F972B15
:10041000D8B0962B97511A0DF45005E0966F0A0E3E
:100420009603F350975F935115E0010A05E093514D
:10043000020A08E02AEF02F0060E9727040E98271A
:100440002AEF02F0010E9627020E9727080E982732
:100450002AEF02F01200A19732EC01F0800EF4ECCA
:1004600000F032EC01F0200EA2B3720E05EC01F0A8
:1004700032EC01F0200E9FB9730E05EC01F032EC66
:1004800001F0DA0ED96EDA6A4BEF02F03A0E05ECA3
:1004900001F032EC01F0300ED918D8B453EF02F06D
:1004A000DF5054EF02F0200E05EC01F032EC01F0C9
:1004B000D92ADF5005EC01F032EC01F0D92AE20E26
:1004C000D918E4E19FADE5EF0DF09F9DE5EF0DF04C
:1004D000A92F1200A851A96F9FA512009F959F8771
:1004E0001200876B896BA099A651A76FB251B36FA9
:1004F000B46B8250F80B8B6EC250C30BC26EA1B1AD
:10050000D96B9F97C2829D8C1200A0B568EC02F057
:10051000A0931200ACA28AEF02F09EA88DEF02F029
:100520001200000EE96E010EEA6E8AEC02F0E92A72
:100530000D0EEF18D8B4A1EF02F0EF50AD6E95EFAD
:1005400002F08AEC02F0200EAD6E8AEC02F03A0E58
:10055000AD6E8AEC02F02D0EAD6E8AEC02F00A0E42
:10056000AD6EE90601EF04F0300EEF5C956FF00B15
:10057000D8B41200410EEF5C956FF00BD8A4C4EF15
:1005800002F00A0E95271200610EEF5C956FF00BDA
:10059000D8A4CEEF02F00A0E95271200956B120038
:1005A000E92AB4EC02F09539916FE92AB4EC02F033
:1005B000955191271200956F0A0E955DD8A0E4EF32
:1005C00002F09551370F12009551300F1200D0EC08
:1005D00002F09151AF6E01EF04F0D0EC02F09151B6
:1005E000DA6ED0EC02F09151D96EDF380F0BDBECF4
:1005F00002F0AD6E8AEC02F0DF500F0BDBEC02F084
:10060000AD6E8AEC02F00A0EAD6E8AEC02F001EFDC
:1006100004F0916B020EFA6E91511AEC03F0FA6A33
:10062000000AD8B401EF04F08AEC02F0AD6E912B11
:100630000AEF03F0F9267A0C6C0C650C200C700C98
:100640006F0C6C0C650C630C650C6E0C690C650C06
:100650000D0C000CE92AEF50D8B452EF03F0300E25
:10066000EF5CD8B452EF03F0A66FA76F0808D8A0CC
:1006700009EF03F0E92A2E0EEF18D8A401EF04F0D9
:10068000D0EC02F09151A86FA96F010EC26EA08547
:10069000B251B36F8250F80B8B6E9F8B9F859F89F1
:1006A00001EF04F09F99000EC26EA095A099819869
:1006B000A297A2939F9B01EF04F0A293819801EF70
:1006C00004F0A0A55DEF03F0E92AB4EC02F0955127
:1006D000AE6FD0EC02F09151AF6FA28301EF04F046
:1006E000B2BF020EB2BD040EB2BB080EB2B9100EFC
:1006F000B2B7200EB2B5400EB2B3800EB56F120085
:10070000AB6BAC6BAD6B9B6B9C6B9F91D0EC02F0B9
:100710009151B26F0108D8B001EF04F09F8170ECE5
:1007200003F001EF04F0D0EC02F09151030E91615F
:1007300001EF04F0915105E0D86FA181D96B01EF71
:1007400004F0A19101EF04F0D0EC02F09151946F0C
:100750000908D8A001EF04F0D0EC02F0CE0E9425E9
:10076000E16EE26A9151E76E910EE16E000E942502
:100770008BEC01F001EF04F0D0EC02F0080E916177
:10078000C6EF03F09151EE6F01EF04F0000EEE6F33
:1007900001EF04F0000EE96E010EEA6E2A0EEF186A
:1007A000D8A406EF04F0E92A3E0EEF18D8B491EF72
:1007B00002F02A0EEF18D8B4E7EF02F0230EEF187C
:1007C000D8B4EDEF02F0500EEF18D8B42AEF03F0D2
:1007D000520EEF18D8B461EF03F0530EEF18D8B4EF
:1007E00080EF03F0700EEF18D8B4A4EF03F0690E99
:1007F000EF18D8B493EF03F0410EEF18D8B4BCEF64
:1008000003F0E92AA0978D6BAB88120032EC01F05F
:10081000C00EF4EC00F032EC01F0000EE96E010EB7
:10082000EA6E0D0EEF18D8B430EF04F0EF50D8B4E4
:1008300030EF04F08D51D8A41EEF04F0EF5005EC1A
:1008400001F032EC01F0872B87A92DEF04F0876BC4
:100850000F0E8B6FC00E23EC01F0E92A11EF04F0AC
:10086000AB8801EF04F032EC01F0B451300F05EC2D
:1008700001F032EC01F0200EA1BD2D0E05EC01F0CF
:100880000A0E985D02E3986F972B0A0E975D02E3BC
:10089000976F962B32EC01F096510EE1200E05EC8D
:1008A00001F032EC01F097510DE1200E05EC01F062
:1008B00032EC01F068EF04F09651300F05EC01F0D6
:1008C00032EC01F09751300F05EC01F032EC01F001
:1008D0009851300F05EC01F032EC01F02E0E05ECD2
:1008E00001F09D5108E0400A11E09D51800A19E095
:1008F0009D51C00A21E032EC01F0300E05EC01F010
:1009000032EC01F0200E05EC01F0120032EC01F0A7
:10091000320E05EC01F032EC01F0350E05EC01F081
:10092000120032EC01F0350E05EC01F032EC01F072
:10093000300E05EC01F0120032EC01F0370E05EC40
:1009400001F032EC01F0350E05EC01F01200020E60
:10095000AB5FD8B4B1EF04F0ABAFB1EF04F0AB2BA9
:10096000A18D1200B2519D6BB5519C03F4509C6F48
:10097000F3509D6F9B5108E0B5519B03F4509B6F62
:10098000F3509C27D8B09B2B9D51AD27D8A0CDEF1D
:1009900004F0010EAC27D8B0AB2B9C51AC27D8B0DB
:1009A000AB2B9B51AB271200C282A0991200A099D9
:1009B0009FA1E0EF04F0B2EC04F0B32FD4EF04F009
:1009C000A1B35BEF05F0E26ACE0EE16EB451E12611
:1009D000E750AC27E7BEEFEF04F0D8B0AB2B9FA9F0
:1009E0000BEF05F08298AB988AEC02F0AB51300F18
:1009F000AD6E8AEC02F0AC390F0BDBEC02F0AD6EA1
:100A00008AEC02F0AC510F0BDBEC02F0AD6E8AEC1D
:100A100002F02C0EAD6EA7EC04F0B90EE16EB451ED
:100A2000E126E126AB51E76EE12AAC51E76E9FABC0
:100A300059EF05F00C0E8761876B040EB4612AEF45
:100A400005F0A1BF59EF05F0010EB4653BEF05F0CD
:100A500033EF05F0A1AF59EF05F0050EB4653BEF9C
:100A600005F033EF05F032EC01F0900E8725F4EC41
:100A700000F043EF05F032EC01F0C00E8725F4ECF6
:100A800000F043EF05F0E750926FE106E750936FF7
:100A9000A1BD926DA1BD936D9251400DF3509D6F1C
:100AA000F450926FF8EC01F033EC04F0A19D080EC5
:100AB0008727A2EF05F0E26AD60EE16ED905E1269E
:100AC000E750AC27D8B0AB2BC90EE16ED905E126B3
:100AD000E126AB51E76E9FAB7AEF05F032EC01F007
:100AE000D00E8925F4EC00F032EC01F0200E05EC7C
:100AF00001F0892BE12AAC51E76E9FABA0EF05F026
:100B0000E750926F936B986B976BF8EC01F032ECB7
:100B100001F09651300F05EC01F032EC01F09751E5
:100B2000300F05EC01F032EC01F09851300F05EC7C
:100B300001F032EC01F0200E05EC01F0040E8927E3
:100B400011EF06F0A2A3D5EF05F0EE51B463D5EF97
:100B500005F0AE51AB5DD8B4B8EF05F0D8A0B4EF56
:100B600005F0A285D5EF05F0A2A5A281D5EF05F08D
:100B700081B0C7EF05F0EA51AF5DAC5DD8B4B4EF1A
:100B800005F0D8A0B4EF05F0A285D5EF05F0E95146
:100B9000AF25AC5DD8B4D0EF05F0D8A0B4EF05F028
:100BA000A285D5EF05F0B4EF05F0A2A708EF06F097
:100BB000EF51B46308EF06F0B051AB5DD8B4EBEF82
:100BC00005F0D8A0E7EF05F0A28B08EF06F0A2AB86
:100BD000A28908EF06F081B2FAEF05F0EC51B15DA1
:100BE000AC5DD8B4E7EF05F0D8A0E7EF05F0A28B35
:100BF00008EF06F0EB51B125AC5DD8B403EF06F079
:100C0000D8A0E7EF05F0A28B08EF06F0E7EF05F0BC
:100C1000AB6BAC6BAD6BA72F8BEF06F0A1A11BEFFD
:100C200006F0D951D819D8B41BEF06F0080EC22629
:100C3000D92B86EF06F0A2A32BEF06F0A2B528EF82
:100C400006F0A2A128EF06F081A0818029EF06F02E
:100C50008190A291A295A2A73BEF06F0A2BB38EF2C
:100C600006F0A2A938EF06F081A2818239EF06F0E2
:100C70008192A299A29BA1A176EF06F08AEC02F0E4
:100C8000690EAD6E8AEC02F0C951300FAD6E8AEC80
:100C900002F0CA390F0BDBEC02F0AD6E8AEC02F009
:100CA000CA510F0BDBEC02F0AD6E8AEC02F02C0E99
:100CB000AD6E8AEC02F0690EAD6E8AEC02F0CB519B
:100CC000300FAD6E8AEC02F0CC390F0BDBEC02F08A
:100CD000AD6E8AEC02F0CC510F0BDBEC02F0AD6E86
:100CE0008AEC02F02C0EAD6E8AEC02F08AEC02F077
:100CF0000A0EAD6EAB88000000008288AB6BAC6B57
:100D0000AD6B9F85A099A193896B1200B251B36F0F
:100D1000A1839DEF06F0B42BB251B36F8B2A9DEFE8
:100D200006F0B42BB251B36FC250040FC26E3C0E2A
:100D3000C2140C0A02E1040EC2269D8CAB6BAC6B94
:100D4000AD6BD66AF294F28AA0991200A092B36AAF
:100D5000B26AA192A0821200A1B91200A189996B76
:100D60009981A6EF06F09EB5FEEF06F0A1B912003C
:100D7000A189996B9983DFEF06F0A6EF06F09EB587
:100D8000D4EF08F0A1B91200A189996B9985DFEF22
:100D900006F0A6EF06F0020EE463D1EF06F0DFEFF7
:100DA00006F0050EE463D7EF06F0DFEF06F0060E5F
:100DB000E463DDEF06F0DFEF06F0A6EF06F0040EC9
:100DC000E66F9F8FA6EF06F0A1B91200A189996B7B
:100DD0009987A6EF06F032EC01F0010EF4EC00F07A
:100DE00032EC01F09EB19F8B9EB3A185E36BE46B67
:100DF000FAEF06F0A19B996B00EF0EF0E3BF80EFD6
:100E000007F0E3510AE132EC01F0010EF4EC00F0DE
:100E100032EC01F0A17FCBEF08F01B0EF76EC40E91
:100E2000F66EE52BE551F6260800010EF56266EF39
:100E300007F0010EE56FE42B32EC01F0010EF4EC4B
:100E400000F032EC01F0800EF4EC00F032EC01F036
:100E50002A0E05EC01F032EC01F0D890E337E3B351
:100E600046EF07F0E3B54EEF07F0E3B756EF07F0B4
:100E7000E3B95EEF07F0010EE46FE36F1B0EF76E50
:100E8000000EF66ED8EC0AF0CBEF08F01B0EF76EF2
:100E9000220EF66ED8EC0AF0CBEF08F01B0EF76EC0
:100EA000420EF66ED8EC0AF0CBEF08F01B0EF76E90
:100EB000680EF66ED8EC0AF0CBEF08F01B0EF76E5A
:100EC000900EF66ED8EC0AF0CBEF08F0E42B32EC83
:100ED00001F0F550F4EC00F032EC01F02A0E05ECD4
:100EE00001F032EC01F0F6060800F550F4EC00F0E9
:100EF00032EC01F0200E05EC01F0F62ACBEF08F001
:100F0000010EE46399EF07F0A607FF0EA6638BEFCF
:100F100007F0080EA66F32EC01F0800E0A0FF4EC19
:100F200000F032EC01F0A651300F05EC01F0CBEFF0
:100F300008F0020EE463A9EF07F0A807A851926F2A
:100F4000936B986B976BF8EC01F0E1EC0CF0CBEF46
:100F500008F0030EE463CAEF07F0010EB263B5EFC9
:100F600007F0800EB26FBBEF07F0800EB203F450B3
:100F7000B26F70EC03F09F91010EB2639F81B2518A
:100F8000926F936B986B976BF8EC01F0E1EC0CF0BF
:100F9000CBEF08F0050EE463DEEF07F0AF07D8B043
:100FA000DAEF07F0AE5104E0AE07D8A4DAEF07F0AD
:100FB000010EAE6F83EC0BF0CBEF08F0060EE4638E
:100FC000F2EF07F0B107D8B0EEEF07F0B05104E050
:100FD000B007D8A4EEEF07F0010EB06FA6EC0BF04F
:100FE000CBEF08F0090EE46302EF08F0E907E951DE
:100FF000926F936B986B976BF8EC01F0E1EC0CF04F
:10100000CBEF08F00A0EE46312EF08F0EA07EA51AA
:10101000926F936B986B976BF8EC01F0E1EC0CF02E
:10102000CBEF08F00B0EE46322EF08F0EB07EB5177
:10103000926F936B986B976BF8EC01F0E1EC0CF00E
:10104000CBEF08F00C0EE46332EF08F0EC07EC5144
:10105000926F936B986B976BF8EC01F0E1EC0CF0EE
:10106000CBEF08F00F0EE4634AEF08F0EE51D8A47E
:101070003EEF08F0070EEE6F3FEF08F0EE07EE517F
:10108000926F936B986B976BF8EC01F0E1EC0CF0BE
:10109000CBEF08F0100EE46362EF08F0EF51D8A434
:1010A00056EF08F0070EEF6F57EF08F0EF07EF511C
:1010B000926F936B986B976BF8EC01F0E1EC0CF08E
:1010C000CBEF08F0140EE463CBEF08F0DA0EED631B
:1010D0007FEF08F0300EDB637CEF08F0300EDA6350
:1010E00077EF08F0390EDA6FDB6FC7EF08F0390ED3
:1010F000DB6FDA07C7EF08F0DB07C7EF08F0DC0E9D
:10110000ED6399EF08F0300EDD6396EF08F0300ED6
:10111000DC6391EF08F0320EDC6F330EDD6FC7EF4A
:1011200008F0390EDD6FDC07C7EF08F0DD07C7EF09
:1011300008F0DE0EED63B3EF08F0300EDF63B0EFC2
:1011400008F0300EDE63ABEF08F0350EDE6F390EBF
:10115000DF6FC7EF08F0390EDF6FDE07C7EF08F06B
:10116000DF07C7EF08F0300EE163C6EF08F0300E7E
:10117000E063C1EF08F0350EE06F390EE16FC7EFA5
:1011800008F0390EE16FE007C7EF08F0E1070EEC59
:101190000DF0CBEF08F09EB5D2EF08F0A19B996B54
:1011A00000EF0EF09E951200E3BF8FEF09F0E351C0
:1011B0000AE132EC01F0010EF4EC00F032EC01F047
:1011C000A17FCFEF0AF01B0EF76EC40EF66EE50797
:1011D000E551F6260800F550D8A475EF09F0040E85
:1011E000E56FE40732EC01F0010EF4EC00F032ECB4
:1011F00001F0E3B15DEF09F0D890E333E3B10DEF17
:1012000009F0E3B321EF09F0E3B535EF09F0E3B7F7
:1012100049EF09F0E3B95DEF09F01B0EF76E000E20
:10122000F66ED8EC0AF032EC01F0D00EF4EC00F0DF
:1012300032EC01F02A0E05EC01F032EC01F0CFEFB8
:101240000AF01B0EF76E220EF66ED8EC0AF032ECA6
:1012500001F0D00EF4EC00F032EC01F02A0E05ECB7
:1012600001F032EC01F0CFEF0AF01B0EF76E420EE8
:10127000F66ED8EC0AF032EC01F0D00EF4EC00F08F
:1012800032EC01F02A0E05EC01F032EC01F0CBEF6C
:1012900008F01B0EF76E680EF66ED8EC0AF032EC12
:1012A00001F0D00EF4EC00F032EC01F02A0E05EC67
:1012B00001F032EC01F0CBEF08F0140EE46FE36BB9
:1012C000E3891B0EF76E900EF66ED8EC0AF032EC46
:1012D00001F0D00EF4EC00F032EC01F02A0E05EC37
:1012E00001F032EC01F0CBEF08F0E40732EC01F052
:1012F000F550F4EC00F032EC01F02A0E05EC01F0B0
:1013000032EC01F0F62A0800F550F4EC00F032EC73
:1013100001F0200E05EC01F0F606CFEF0AF0010E09
:10132000E463A7EF09F0A62B090EA66399EF09F075
:10133000A66B32EC01F0800E0A0FF4EC00F032ECF8
:1013400001F0A651300F05EC01F0CFEF0AF0020ECC
:10135000E463B7EF09F0A82BA851926F936B986BD9
:10136000976BF8EC01F0E1EC0CF0CFEF0AF0030E14
:10137000E463D6EF09F0800EB263C4EF09F0010E0A
:10138000B26F9F91CBEF09F09F81020EB203F35031
:10139000B26F70EC03F0B251926F936B986B976BD6
:1013A000F8EC01F0E1EC0CF0CFEF0AF0050EE4638D
:1013B000E6EF09F0AF2B06E3AE2B020EAE63E2EFD1
:1013C00009F0AE6B83EC0BF0CBEF08F0060EE46394
:1013D000F6EF09F0B12B06E3B02B020EB063F2EF8B
:1013E00009F0B06BA6EC0BF0CBEF08F0090EE4634C
:1013F00006EF0AF0E92BE951926F936B986B976BAC
:10140000F8EC01F0E1EC0CF0CFEF0AF00A0EE46327
:1014100016EF0AF0EA2BEA51926F936B986B976B79
:10142000F8EC01F0E1EC0CF0CFEF0AF00B0EE46306
:1014300026EF0AF0EB2BEB51926F936B986B976B47
:10144000F8EC01F0E1EC0CF0CFEF0AF00C0EE463E5
:1014500036EF0AF0EC2BEC51926F936B986B976B15
:10146000F8EC01F0E1EC0CF0CFEF0AF00F0EE463C2
:101470004DEF0AF0070EEE6341EF0AF0EE6B42EF1C
:101480000AF0EE2BEE51926F936B986B976BF8EC22
:1014900001F0E1EC0CF0CFEF0AF0100EE46364EF22
:1014A0000AF0070EEF6358EF0AF0EF6B59EF0AF0FE
:1014B000EF2BEF51926F936B986B976BF8EC01F0F9
:1014C000E1EC0CF0CFEF0AF0140EE463CFEF0AF07A
:1014D000DA0EED6381EF0AF0390EDB637EEF0AF07E
:1014E000390EDA6379EF0AF0300EDB6FDA6FCBEF8B
:1014F0000AF0300EDB6FDA2BCBEF0AF0DB2BCBEFF1
:101500000AF0DC0EED639EEF0AF0330EDD6392EF1E
:101510000AF0320EDC6392EF0AF0300EDC6FDD6F02
:10152000CBEF0AF0390EDD639BEF0AF0300EDD6F72
:10153000DC2BCBEF0AF0DD2BCBEF0AF0DE0EED63F8
:10154000B7EF0AF0390EDF63B4EF0AF0350EDE6351
:10155000AFEF0AF0300EDE6FDF6FCBEF0AF0300E28
:10156000DF6FDE2BCBEF0AF0DF2BCBEF0AF0300E74
:10157000E163CAEF0AF0300EE063C5EF0AF0350E02
:10158000E06F390EE16FCBEF0AF0300EE16FE02B28
:10159000CBEF0AF0E12B0EEC0DF0CFEF0AF09EB589
:1015A000D6EF0AF0A19B996B00EF0EF09E9512000A
:1015B00032EC01F0800E010FF4EC00F032EC01F09F
:1015C0000900F55006E005EC01F032EC01F0E0EF27
:1015D0000AF0C00E010FF4EC00F032EC01F009004B
:1015E000F55006E005EC01F032EC01F0EFEF0AF007
:1015F000900E010FF4EC00F032EC01F00900F55010
:1016000006E005EC01F032EC01F0FEEF0AF0D00E3E
:10161000010FF4EC00F032EC01F00900F55006E0A7
:1016200005EC01F032EC01F00DEF0BF01200E3BF1E
:101630005EEF0CF0E35121E19F9BA19532EC01F0AC
:10164000010EF4EC00F032EC01F0010EE36FE56FF7
:10165000E46F32EC01F0800EF4EC00F032EC01F0BB
:101660002A0E05EC01F032EC01F01B0EF76E000EB5
:10167000F66ED8EC0AF0D2EF0CF0010EE46350EFF6
:101680000BF032EC01F0800E0A0FF4EC00F032ECBB
:1016900001F0A651300F05EC01F0E38FD2EF0CF012
:1016A000020EE46360EF0BF0A851926F936B986B9E
:1016B000976BF8EC01F0E1EC0CF0E38FD2EF0CF05B
:1016C000030EE46370EF0BF0B251926F936B986B63
:1016D000976BF8EC01F0E1EC0CF0E38FD2EF0CF03B
:1016E000040EE4637AEF0BF0020ED86FD96BA17190
:1016F000D2EF0CF0050EE4639DEF0BF083EC0BF0E2
:10170000E38FD2EF0CF0AF51400DF3509D6FF450CA
:10171000926FAE51936FF8EC01F01B0EF76EC40E92
:10172000F66EE551F62632EC01F00800F5500A0F8E
:10173000F4EC00F040EC04F01200060EE463C0EF9D
:101740000BF0A6EC0BF0E38FD2EF0CF0B151400D93
:10175000F3509D6FF450926FB051936FF8EC01F01D
:101760001B0EF76EC40EF66EE551F62632EC01F054
:101770000800F5500A0FF4EC00F040EC04F0120001
:10178000070EE463C7EF0BF08170D2EF0CF0080E88
:10179000E463CEEF0BF08172D2EF0CF0090EE4633C
:1017A000DEEF0BF0E951926F936B986B976BF8EC4F
:1017B00001F0E1EC0CF0E38FD2EF0CF00A0EE463E1
:1017C000EEEF0BF0EA51926F936B986B976BF8EC1E
:1017D00001F0E1EC0CF0E38FD2EF0CF00B0EE463C0
:1017E000FEEF0BF0EB51926F936B986B976BF8ECED
:1017F00001F0E1EC0CF0E38FD2EF0CF00C0EE4639F
:101800000EEF0CF0EC51926F936B986B976BF8ECBA
:1018100001F0E1EC0CF0E38FD2EF0CF00D0EE4637D
:1018200015EF0CF0A273D2EF0CF00E0EE4631CEF78
:101830000CF0A277D2EF0CF00F0EE4632CEF0CF05B
:10184000EE51926F936B986B976BF8EC01F0E1ECB3
:101850000CF0E38FD2EF0CF0100EE4632CEF0CF0E1
:10186000EF51926F936B986B976BF8EC01F0E1EC92
:101870000CF0E38FD2EF0CF0110EE46343EF0CF0A9
:101880009E73D2EF0CF0120EE4634AEF0CF09E71DF
:10189000D2EF0CF0130EE4634AEF0CF08178D2EF34
:1018A0000CF0140EE4635CEF0CF0DA0EED6FE38FD6
:1018B0000EEC0DF0D2EF0CF0D2EF0CF0010EE46361
:1018C00070EF0CF001EC0DF0A6516CE0A76FA85181
:1018D000A96FA0859F859F81010EC26ED2EF0CF08B
:1018E000020EE46378EF0CF03FEC0DF0D2EF0CF059
:1018F000030EE46380EF0CF03FEC0DF0D2EF0CF040
:10190000050EE46388EF0CF03FEC0DF0D2EF0CF025
:10191000060EE46390EF0CF03FEC0DF0D2EF0CF00C
:10192000090EE46398EF0CF03FEC0DF0D2EF0CF0F1
:101930000A0EE463A0EF0CF03FEC0DF0D2EF0CF0D8
:101940000B0EE463A8EF0CF03FEC0DF0D2EF0CF0BF
:101950000C0EE463B0EF0CF03FEC0DF0D2EF0CF0A6
:101960000F0EE463B8EF0CF03FEC0DF0D2EF0CF08B
:10197000100EE463C0EF0CF03FEC0DF0D2EF0CF072
:10198000140EE463D2EF0CF0E00EED63CCEF0CF03C
:101990003FEC0DF0D2EF0CF0020EED270EEC0DF047
:1019A000D2EF0CF0A19B996B00EF0EF01B0EF76EBF
:1019B000C40EF66EE551F62632EC01F00800F55043
:1019C00012001B0EF76EC40EF66EE551F62632ECD1
:1019D00001F00800F5500A0FF4EC00F032EC01F0D1
:1019E0009651300F05EC01F032EC01F09751300FB9
:1019F00005EC01F032EC01F09851300F05EC01F0EC
:101A00001200E39F32EC01F0800E0A0FF4EC00F0BC
:101A100032EC01F0200E05EC01F01200D6EC0CF0D7
:101A20000C0FF4EC00F032EC01F0DA0EED631CEF79
:101A30000DF0440E2BEF0DF0DC0EED6323EF0DF0F7
:101A4000480E2BEF0DF0DE0EED632AEF0DF04D0E7C
:101A50002BEF0DF0530E05EC01F0DA6AED51D96E63
:101A600032EC01F0DF5005EC01F032EC01F0D92A44
:101A7000DF5005EC01F032EC01F0D92A12001B0E08
:101A8000F76EC40EF66EE551F626080032EC01F052
:101A9000F5500A0FF4EC00F032EC01F0200E05ECEA
:101AA00001F032EC01F0200E05EC01F032EC01F017
:101AB000200E05EC01F032EC01F0200E05EC01F0F7
:101AC00032EC01F0200E05EC01F032EC01F0200EBA
:101AD00005EC01F032EC01F0200E05EC01F0E39F83
:021AE0001200F2
:101B0000706F6D6961722074006F6473746570002A
:101B1000737265646E696100706F6D6961722069CE
:101B20000000757374617720743100757374617788
:101B300020743200776C61637A3100776C61637A6C
:101B40003200686973207231203100686973207235
:101B500031203219006869732072322031006869BF
:101B60007320723220320000726567756C61636A9F
:101B7000613100726567756C61636A613200637A16
:101B8000756A2072203100637A756A2072203200F3
:101B9000777973776965746C2E207A656761720056
:101BA000777973776965746C2E2074656D70007039
:101BB0006F6473776965746C656E6965007A6567D3
:101BC000617200000080C090D001A1ABF4EF0DF075
:101BD00099B1EBEF06F099B3FEEF06F099B5D4EFAB
:101BE00008F099B717EF0BF083A0ACEC06F083A2D6
:101BF000B3EC06F083A4BFEC06F083A6E4EC06F099
:101C0000A1B72BEF02F0A0A512EF0EF0A1B712EFD3
:101C10000EF09FB512EF0EF09FB771EC02F0A0B975
:101C2000D7EC04F0A0B385EC02F0A0B7CAEC03F047
:101C3000E5EF0DF0D86A806A816A826A836A846AF5
:101C4000896A8A6A8B6A8C6A8D6AD08E010ECD6E23
:101C5000F26AF28EF28CF06A800EF16EF29A969829
:101C6000C69AAB9E000EB56E070EB46E000EBD6E2A
:101C7000BA6ECC6A510EB16E9D6AA06A9D803F0E0D
:101C8000926EE00E936EA00E946E0F0E956E070E80
:101C9000966EC70ED56E800ECB6E800EE96EEA6A28
:101CA000EF6AE92AD8A050EF0EF0EA2A020EEA18ED
:0C1CB000D8A450EF0EF0FA6A9CEF01F08F
:020000040030CA
:08000000FF71F2FEFFFDFAFFA3
:00000001FF
